:020000040800F2
:10000000581C0020415200087102000873020008C9
:10001000770200087B0200087F0200080000000051
:100020000000000000000000000000008302000843
:10003000850200080000000087020008890200080D
:100040005B5200085B5200085B5200085B520008DC
:100050005B5200085B5200085B5200085B520008CC
:100060005B5200085B5200085B5200085B520008BC
:100070005B5200085B5200085B5200085B520008AC
:100080005B5200085B5200085B5200085B5200089C
:100090005B5200085B5200085B5200086B45000889
:1000A0005B5200085B5200085B5200085B5200087C
:1000B000534A000875500008694A00085B5200085E
:1000C0005B5200085B5200085B5200085B5200085C
:1000D0005B520008D90500085B5200083351000844
:1000E0005B5200085B5200085B52000800F002F807
:1000F00000F071F80AA090E8000C82448344AAF151
:100100000107DA4501D100F066F8AFF2090EBAE84E
:100110000F0013F0010F18BFFB1A43F0010318473B
:100120009CCA0000BCCA000010F8013B0A4413F04E
:10013000030408BF10F8014B1D1108BF10F8015B44
:10014000641E05D010F8016B641E01F8016BF9D133
:10015000002D15D010F8014B03F00C030C2BA1EB74
:1001600004040ABF10F8013BA4EB8314A4EB03249E
:1001700005F1010314F8016B5B1E01F8016BF9D561
:10018000914238BF10F8013BD1D3704700230024BF
:1001900000250026103A28BF78C1FBD8520728BF97
:1001A00030C148BF0B607047662909F05685642945
:1001B00006F06286782906F09B86002070471FB5FE
:1001C00007F0F2FA04000020002108F013FCE060C0
:1001D0001FBD10B510BD07F017FC1146FFF7EFFF6C
:1001E00000F008F807F035FC03B4FFF7F2FF03BC9A
:1001F00000F0A6F900F03AF94FF4E13000F0AEF962
:100200004FF4E13004F054FF04F063F803F0F4FD20
:1002100000F0D9FB02F0E4FC04F038FC04F066FBCB
:1002200004F0ADFB04F057FC04F0A2FC41F61F41C2
:10023000002004F015FE10E00848006809F064F999
:10024000044622460B4606A1084806F0D9FD0C23B9
:10025000064A0021184603F0B3FFEDE70000002036
:1002600050697463683A252E326600000805002044
:10027000704700BFFEE700BFFEE700BFFEE700BF1C
:10028000FEE7704770477047704700000CB50020CC
:10029000019000906C48006840F480306A49086022
:1002A00000BF6948006800F4003000900198401CCD
:1002B0000190009818B90198B0F5A06FF1D162488B
:1002C000006800F4003010B10120009001E000202F
:1002D00000900098012843D15C48006840F010006D
:1002E0005A4908600846006820F003000860084684
:1002F000006840F002000860534840685249486076
:100300000846406848600846406840F4806048609D
:100310000846406820F47C1048600846406840F475
:10032000E81048600846006840F08070086000BF30
:100330004548006800F000700028F9D04248406845
:1003400020F00300404948600846406840F0020041
:10035000486000BF3C48406800F00C000828F9D114
:100360000CBD10B5FFF792FF10BD10B53648006800
:1003700040F00100344908600846406834490840AC
:100380003149486008460068324908402E490860F3
:100390000846006820F4802008600846406820F481
:1003A000FE0048604FF41F008860FFF7DAFF4FF04F
:1003B00000602949086010BD10B50021002000220E
:1003C000214B5B6803F00C0121B1042906D00829F8
:1003D00028D107E0214B224C236027E01F4B204C03
:1003E000236023E0184B5B6803F47010164B5B68C6
:1003F00003F48032022303EB904022B9194B4343AC
:10040000174C23600DE0104B5B6803F4003323B1FD
:10041000144B4343124C236003E0104B4343104CF6
:10042000236003E00D4B0E4C236000BF00BF064B62
:100430005B68C3F303130C4CE15C094B1B68CB40B6
:10044000074C236010BD0000001002400020024055
:100450000000FFF8FFFFF6FE08ED00E000127A0052
:100460003C00002000093D004000002010B56FF066
:10047000040004F054FF2E4800682E49B0FBF1F050
:100480002D4908700846007800EB4001C1EBC01010
:100490004FF6FF7101EAC0002849088010BD0146EF
:1004A000254A12784A434FF0E0235A6100229A61AC
:1004B0001A46126942F001021A6100BF4FF0E022B1
:1004C000106900F001021AB100F48032002AF5D060
:1004D0004FF0E022126922F001024FF0E0231A618E
:1004E00000229A6170470146144A12884A434FF02D
:1004F000E0235A6100229A611A46126942F0010211
:100500001A6100BF4FF0E022106900F001021AB139
:1005100000F48032002AF5D04FF0E022126922F078
:1005200001024FF0E0231A6100229A617047000037
:100530003C00002000127A005000002052000020F1
:1005400000BF704700BF434A128802F04002002AF1
:10055000F9D0C2B23F4B1B1D1A80704710B586B050
:100560000446012144F2040005F0A2FA4FF40070A1
:10057000ADF8140003208DF8160018208DF8170030
:1005800005A9354804F0D8FF4FF48060ADF8140099
:1005900004208DF8170005A92F4804F0CDFF019421
:1005A0000020ADF80800ADF80A00ADF80C00ADF879
:1005B00010000C20ADF80E0001A9264806F02DFA17
:1005C000012240F22551234806F0BFFA01212148BB
:1005D00006F0AFFA06B010BD10B540F225511D4827
:1005E00006F098FB10B31B4806F014FBC4B21B487E
:1005F000008800F40040C8B91848008800F4804022
:1006000060B10A2C03D000201449088020E0134870
:10061000008840F400401149088019E00D2C06D1F3
:100620000E48008840F480400C49088010E00B48D8
:100630000088C0F30D000A490C5408480088401C8B
:100640000649088008460088C72801DD0020088088
:1006500010BD000000380140000801405800002093
:100660001C05002010B50420FFF719FF10BD08B5C8
:100670000121092005F01CFA01218A4805F02DF816
:100680001820ADF8000010208DF8030003208DF82D
:1006900002006946844804F04FFF08BD10B5824847
:1006A000006820F47040804908600846006840F403
:1006B0004050086001207D4908607D49C1F89001E3
:1006C000FFF7D0FF002079490860FFF7CBFF00203B
:1006D0007749C1F8900110BD10B57348006820F447
:1006E0007040714908600846006840F44050086056
:1006F00000206E49091D08606D49C1F88C01FFF7A3
:10070000B1FF01206949091D08606949C1F88C01E0
:10071000FFF7A8FF10BD10B500246348006820F45F
:100720007040614908600846006840F40040086075
:1007300001205E490860FFF795FF01205C49C1F880
:100740009001FFF78FFF07E0601CC4B2FA2C03DDB5
:10075000FFF7C2FF012010BD544880380068002810
:10076000F2D15249091D086000BFF4E710B500201E
:100770004E49091D08604C48006820F470404A4901
:1007800008600846006840F440500860002048496E
:10079000C1F88C01FFF766FF01204449091D08607C
:1007A000FFF760FF00204249C1F8900110BD10B56D
:1007B00000203E49091D08603B48006820F4704055
:1007C000394908600846006840F44050086001203C
:1007D0003749C1F88C01FFF745FF01203349091D56
:1007E0000860FFF73FFF00203149C1F8900110BDBC
:1007F00070B504462C48006820F470402A4908600F
:100800000846006840F44050086000202749091D50
:100810000860002512E0E009244908606006040E23
:1008200001202349C1F89001FFF71CFF00201F4958
:10083000091D0860FFF716FF681CC5B2082DEADB2A
:1008400070BD70B5054600241748006820F470405C
:10085000154908600846006840F40040086000261A
:1008600015E000201149091D0860FFF7FBFE01207B
:100870000F49C1F890016006040E0C4880380068EA
:1008800008B1601CC4B2FFF7EDFE701CC6B2082EA2
:10089000E7DB15B9FFF78BFF01E0FFF767FF2046A5
:1008A00070BD000000023000000C01408C8121422C
:1008B0000080214270B505460C46FFF7EFFED020C0
:1008C000FFF796FFFFF727FF18B1FFF705FF01209D
:1008D00070BD2846FFF78CFFFFF71DFF2046FFF78E
:1008E00087FFFFF718FF18B1FFF7F6FE0120EFE7CB
:1008F000FFF7F2FE0020EBE770B504460025BC2CA4
:1009000001DB012510E0622C01DB02250CE02A2C22
:1009100001DB032508E0142C01DB042504E00A2C8C
:1009200001DB052500E0062529461A20FFF7C2FF56
:1009300070BD70B50446B4F57A7F01DD4FF47A746A
:10094000042C00DA04244FF47A7090FBF4F0401E7B
:10095000C5B229461920FFF7ADFF0546264604EB30
:10096000D671C1F34F00FFF7C7FF70BD70B50446E5
:10097000FFF794FED020FFF73BFFFFF7CCFE2046A9
:10098000FFF736FFFFF7C7FEFFF788FED120FFF71E
:100990002FFFFFF7C0FE0020FFF753FF0546FFF7CC
:1009A0009BFE284670BD10B50446E006010E1C20D3
:1009B000FFF780FF10BD10B50446E006010E1B20B6
:1009C000FFF778FF10BD10B5FFF751FE80216B20B7
:1009D000FFF770FF6420FFF786FD00216B20FFF713
:1009E00069FF0320FFF7E7FF0020FFF7DCFFC820C7
:1009F000FFF79FFF00213820FFF75CFF00216A20EE
:100A0000FFF758FF00212320FFF754FF80213720F4
:100A1000FFF750FF7520FFF7A9FF0446682C0BD1A4
:100A200001216B20FFF746FF00216C20FFF742FFFA
:100A30006420FFF77EFF01E0012010BD0020FCE7ED
:100A40002DE9F04106460F4614461D46FFF726FEE7
:100A5000002141EA4601C8B2FFF7CAFEFFF75BFE7C
:100A600020B1FFF739FE0120BDE8F0813846FFF7DD
:100A7000BFFEFFF750FEFFF711FE012101EB46011B
:100A8000C8B2FFF7B5FEFFF746FE0DE0012C04D11A
:100A90000020FFF7D6FE287003E00120FFF7D1FE0B
:100AA0002870601EC4B26D1C002CEFD1FFF714FE3D
:100AB0000020D9E72DE9F84F6B460222412168203A
:100AC000FFF7BEFF9DF801009DF8001040EA0120ED
:100AD0000FFA80FA504608F025FA804600224B4B68
:100AE00008F08CF806464A4A4A4B07F0CBFF04460A
:100AF00007F096FF83464849584608F031FF044600
:100B000008F092FE00B2BDE8F88F2DE9FC410446E2
:100B10000D4616466B46062243216820FFF790FFDC
:100B20000746BFB99DF801009DF8001040EA01207A
:100B300000B220809DF803009DF8021040EA0120D9
:100B400000B228809DF805009DF8041040EA0120BD
:100B500000B230803846BDE8FC812DE9FC410446F6
:100B60000D4616466B4606223B216820FFF768FFBC
:100B70000746BFB99DF801009DF8001040EA01202A
:100B800000B220809DF803009DF8021040EA012089
:100B900000B228809DF805009DF8041040EA01206D
:100BA00000B230803846BDE8FC812DE9F0410546B1
:100BB0000E4617469846FFF771FD002141EA4501B0
:100BC000C8B2FFF715FEFFF7A6FD20B1FFF784FDC1
:100BD0000120BDE8F0813046FFF70AFEFFF79BFDDC
:100BE00000240CE018F80400FFF702FEFFF793FD65
:100BF00018B1FFF771FD0120EBE7601CC4B2BC42E5
:100C0000F0DBFFF769FD0020E3E7000000407540DE
:100C1000A4703D0AD74342400000C84238B504469C
:100C2000F74890F82400C0B114B10220009001E010
:100C300000200090F24A1268D17BF14A5268107885
:100C40006B460122FFF7B1FF10B14FF0FF3038BD06
:100C50009DF80010EA48417423E0E948807A10B911
:100C60004FF0FF30F3E724B1E548407C08B10020A5
:100C7000EDE714B10120009001E000200090E04A6F
:100C80001268D17BDE4A526810786B460122FFF76A
:100C90008CFF10B14FF0FF30D9E79DF80010D84815
:100CA00041740020D3E738B500241FE0D448006821
:100CB000C07AA04204D0D2480068407DA04200D152
:100CC00012E0CF49496808786B4601222146FFF7B8
:100CD000B7FE10B14FF0FF3038BD9DF8002021461F
:100CE000C8A006F081F800BF601CC4B2C4484068C8
:100CF0000079A042DADC0020EEE770B504460D462C
:100D0000BF480068C07AA04204D0BD480068407D5A
:100D1000A04202D14FF0FF3070BDB9484068007961
:100D2000A04202DC4FF0FF30F6E7B5494968087889
:100D30002B4601222146FFF783FEEDE738B5044636
:100D4000AF4890F82300A04201D1002038BD14B173
:100D50003020009001E000200090A948807C20B164
:100D60009DF8000040F002000090A54890F8220095
:100D700020B19DF8000040F080000090A04A126869
:100D8000117D9F4A526810786B460122FFF70DFFD4
:100D900010B14FF0FF30D9E7994880F82340002088
:100DA000D4E738B5044604F0700010B1012000907B
:100DB00005E014B10020009001E040200090904A2E
:100DC0001268917C8E4A526810786B460122FFF7B8
:100DD000ECFE20B100218A488172481E38BD9DF882
:100DE000000020F04001864801730020009004F0CC
:100DF000400020B99DF8000040F00400009004F08D
:100E0000200020B99DF8000040F00200009004F09E
:100E1000100020B99DF8000040F00100009004F09F
:100E2000080020B99DF8000040F038000090744A96
:100E30001268D17C724A526810786B460122FFF723
:100E4000B4FE20B100216E488172481EC6E724B16D
:100E5000082C02D00020FFF771FF6948847200213E
:100E600001753220FFF73FFB0020B7E738B5044695
:100E70006348807CA04201D1002038BD002C46D0C0
:100E80005F4A126811795E4A526810786B460122F7
:100E9000FFF7D6FD10B14FF0FF30EEE79DF80000F0
:100EA00020F020000090564A12681179544A526886
:100EB00010786B460122FFF778FE10B14FF0FF303B
:100EC000DBE70320FFF70FFB022000904C4890F86F
:100ED000220020B19DF8000040F0800000904848BA
:100EE00090F8230020B19DF8000040F03000009001
:100EF000434A1268117D424A526810786B460122BB
:100F0000FFF753FE002851D04FF0FF30B5E73C4AC1
:100F1000126811793A4A526810786B460122FFF73D
:100F20008FFD10B14FF0FF30A7E73548807A00F011
:100F3000010028B19DF8000040F02000009004E07E
:100F40009DF8000020F0200000902D4A12681179D1
:100F50002B4A526810786B460122FFF726FE10B12B
:100F60004FF0FF3089E70320FFF7BDFA244890F8DF
:100F7000220010B18020009001E000200090204865
:100F800090F8230020B19DF8000040F03000009060
:100F90001B4A1268117D1A4A526810786B4601226A
:100FA000FFF703FE10B14FF0FF3066E7144884747A
:100FB000002062E708B51248807A10B94FF0FF3080
:100FC00008BD002000900E4A1268D17B0C4A52687E
:100FD00010786B460122FFF7E8FD10B14FF0FF30AB
:100FE000EEE7074A12685179054A526810786B4655
:100FF0000122FFF7DAFD68B14FF0FF30E0E70000B3
:101000005C000020252335783A20252335780D0A09
:1010100000000000F84A12681179F74A5268107807
:101020006B460122FFF7C1FD10B14FF0FF30C7E75B
:10103000F14890F82400002853D00C200090EE4A8C
:1010400012681179EC4A526810786B460122FFF75A
:10105000ACFD10B14FF0FF30B2E73220FFF743FA9A
:10106000C0200090E448807A00F0010020B19DF893
:10107000000040F020000090DF4A12681179DE4A3B
:10108000526810786B460122FFF78FFD10B14FF0C8
:10109000FF3095E7D848407C10B10220009001E075
:1010A00000200090D44A1268D17BD34A526810784D
:1010B0006B460122FFF779FD10B14FF0FF307FE75B
:1010C00000200090CC4A12685179CB4A52681078BF
:1010D0006B460122FFF769FD002855D04FF0FF3025
:1010E0006EE704200090C44A12681179C24A52681F
:1010F00010786B460122FFF758FD10B14FF0FF301A
:101100005EE7BD48807C20B9BB48807A00F00100D2
:1011100010B94020009001E060200090B64A1268AB
:101120001179B54A526810786B460122FFF73DFDF0
:1011300010B14FF0FF3043E73220FFF7D4F9AE484B
:10114000407C10B10120009001E000200090AA4AEC
:101150001268D17BA84A526810786B460122FFF7CB
:1011600024FD10B14FF0FF302AE7A34A12685179ED
:10117000A14A52681078A04B10330122FFF715FDE9
:1011800010B14FF0FF301BE7002019E770B504469F
:10119000002624F00104984890F8240008B10020AB
:1011A00070BD9548807A10B94FF0FF30F8E792484B
:1011B000057C807A2040904908740846007CA04253
:1011C00002D04FF0FF3600E0002614B98A48007DB7
:1011D00018B10120FFF722FD02E00020FFF71EFDFD
:1011E0003CB1FFF7E7FE20B1834805744FF0FF30B4
:1011F000D6E73046D4E738B504467F48807A10B940
:101200004FF0FF3038BDBC2C02DB0120009015E010
:10121000622C02DB0220009010E02A2C02DB03206B
:1012200000900BE0142C02DB0420009006E00A2C56
:1012300002DB0520009001E0062000906E48C07A95
:101240009DF80010884201D10020DBE76A4A12684D
:101250009178694A526810786B460122FFF7A5FC25
:1012600010B14FF0FF30CDE79DF800106248C17219
:101270000020C7E738B50446282C02DD4FF0FF30C8
:1012800038BDDCB90020FFF759FD00208DF80000C3
:1012900007208DF80100584A1268917C564A52681E
:1012A00010786B460222FFF780FC10B14FF0FF3040
:1012B000E6E70021504801750020E1E70120FFF733
:1012C0003DFD20208DF80000012C06D100208DF876
:1012D00001000520FFF78FFF17E0052C06DC012039
:1012E0008DF801000520FFF786FF0EE0142C06DCC8
:1012F00002208DF801000A20FFF77DFF05E00320A2
:101300008DF801001420FFF776FF9DF801000721FA
:1013100001EB8010C0B28DF80100374A1268917C51
:10132000354A526810786B460222FFF73EFC10B136
:101330004FF0FF30A4E708212F488172002101738C
:10134000012101750020FFF721FF002098E738B543
:1013500004462948807A10B94FF0FF3038BD26483E
:1013600090F8240010B14FF0FF30F7E72248007DDD
:1013700050B134B1282C04DCE0B2FFF77BFF002031
:10138000ECE70020FFF776FF042C01DA042404E0E8
:10139000B4F57A7F01DD4FF47A744FF47A7090FBE4
:1013A000F4F0401EC0B20090134A12685178124AFD
:1013B000526810786B460122FFF7F7FB10B14FF02F
:1013C000FF30CBE79DF80000401C4FF47A7191FB91
:1013D000F0F081B20848C1810146C9894810FFF781
:1013E0000AFF0020BAE738B504460348807A28B9D6
:1013F0004FF0FF3038BD00005C000020022C06D00A
:10140000042C07D0082C08D0102C0CD108E00020A8
:1014100000900BE00820009008E01020009005E00C
:101420001820009002E04FF0FF30E3E700BFF948DA
:10143000407A9DF80010B0EBE10F01D10020D9E710
:10144000F44A1268D179F34A526810786B46012247
:10145000FFF7ABFB10B14FF0FF30CBE79DF800007A
:10146000C110EC4841720020C4E738B50446E94891
:10147000807A10B94FF0FF3038BDFA2C09D0B4F59E
:10148000FA7F09D0B4F57A7F09D0B4F5FA6F0CD1A0
:1014900008E0002000900BE00820009008E01020F9
:1014A000009005E01820009002E04FF0FF30E3E7E5
:1014B00000BFD848007A9DF80010B0EBE10F01D1D1
:1014C0000020D9E7D34A12689179D24A526810783D
:1014D0006B460122FFF769FB10B14FF0FF30CBE7FD
:1014E0009DF80000C010CB4908720020C4E71CB56D
:1014F00080208DF80000C74A1268917CC54A526866
:1015000010786B460122FFF750FB10B14FF0FF300F
:101510001CBD6420FEF7E7FF00208DF80000BD4AE7
:101520001268917CBB4A526810786B460122FFF723
:101530003CFB10B14FF0FF30EAE7B64A1268917DEC
:10154000B44A526810786B460622FFF779FA10B158
:101550004FF0FF30DCE79DF80500C007400F9DF815
:10156000031001F0010140EA41009DF8011001F073
:10157000010140EA010494B1012C03D10121A548E5
:10158000C17431E0022C03D10021A248C1742BE0C8
:101590002146A1A005F028FC4FF0FF30B8E79D4A96
:1015A0001268D1789B4A526810786B460122FFF787
:1015B00047FA10B14FF0FF30AAE79DF8000000F0A5
:1015C0000F042CB99E4805F00FFC4FF0FF309FE749
:1015D000042C06D19BA005F007FC01218D48C174A5
:1015E00002E000218B48C174FF218A488172FF20EC
:1015F00088490872FF2187484172C1724FF6FF7116
:10160000C181FF21017481740121017380F82210CE
:10161000002180F82310417501751630016041608A
:101620008160163880F8241080F82510C1844FF4AA
:10163000FA60FFF71AFF10B14FF0FF3068E70220A1
:10164000FFF7D1FE10B14FF0FF3061E72A20FFF71E
:10165000D2FD10B14FF0FF305AE73220FFF777FE8E
:1016600010B14FF0FF3053E70020FFF78FFD10B1AE
:101670004FF0FF304CE70020FFF7F8FB10B14FF0C0
:10168000FF3045E70020FFF78CFB002040E7704764
:101690007CB504460D465F48807A00F0700010B9B2
:1016A0004FF0FF307CBD5B4A1268117B594A52688B
:1016B00010786B460622FFF7C3F910B14FF0FF30E8
:1016C000F0E79DF801009DF8001040EA012000B20B
:1016D00020809DF803009DF8021040EA012000B22E
:1016E00060809DF805009DF8041040EA012000B2DA
:1016F000A08015B12846FFF7CAFF0020D2E77CB5CD
:1017000004460D464348807A00F0080010B94FF0B7
:10171000FF307CBD3F4A1268517B3E4A52681078C8
:101720006B460622FFF78CF910B14FF0FF30F0E75F
:101730009DF801009DF8001040EA012000B22080D1
:101740009DF803009DF8021040EA012000B260807D
:101750009DF805009DF8041040EA012000B2A08029
:1017600015B12846FFF793FF0020D2E72DE9FE4F81
:1017700005460C462748807A18B94FF0FF30BDE87F
:10178000FE8F244A1268917B224A5268107802AB7D
:101790000222FFF755F910B14FF0FF30EFE79DF847
:1017A00009009DF8081040EA012006B214B1204655
:1017B000FFF76DFF17494968C88808F089F815498F
:1017C00001904968B1F9080008F06AF8834630468C
:1017D00008F066F85946009008F0CAF98246019967
:1017E00007F02CFF81461F4907F0BAFE80464FF0F4
:1017F0008F4108F0B5F8074608F016F82860002079
:10180000BDE710B588B004461CB94FF0FF3008B0F2
:1018100010BD29E05C000020556E737570706F720A
:1018200074656420736F6674776172652070726F7F
:1018300064756374207265762025642E0A000000AA
:101840006CCB000848616C662073656E73697469BF
:1018500076697479207061727420666F756E642E7B
:101860000A00000000000C42206830B9606820B90E
:10187000A06810B9002008B010BDFA49496808787E
:1018800006AB03221146FFF7DBF810B14FF0FF3033
:10189000F1E79DF81800082101EB201000F00F007F
:1018A000ADF800009DF8190001EB201000F00F00CA
:1018B000ADF802009DF81A0001EB201000F00F00B7
:1018C000ADF8040020684100BDF90000403091FBF4
:1018D000F0F000B2ADF8100060684100BDF9020000
:1018E000403091FBF0F000B2ADF81200A06841006A
:1018F000BDF90400403091FBF0F000B2ADF81400E7
:10190000D8494968087806AB06221146FFF798F8CF
:1019100010B14FF0FF30AEE79DF819009DF8181098
:1019200040EA012000B2ADF808009DF81B009DF8C8
:101930001A1040EA012000B2ADF80A009DF81D001F
:101940009DF81C1040EA012000B2ADF80C00BDF873
:101950001000BDF80810084400B2ADF81000BDF842
:101960001200BDF80A10084400B2ADF81200BDF82C
:101970001400BDF80C10084400B2ADF81400BDF816
:101980001000000A8DF81800BDF81000C0B28DF8E4
:101990001900BDF81200000A8DF81A00BDF81200F7
:1019A000C0B28DF81B00BDF81400000A8DF81C00B1
:1019B000BDF81400C0B28DF81D00AA494968087826
:1019C00006AB06221146FFF7F0F810B14FF0FF30DA
:1019D00051E700204FE70146A248007A30B10128C4
:1019E00007D0022809D003280FD10AE0FA20088086
:1019F0000EE04FF4FA7008800AE04FF47A70088025
:101A000006E04FF4FA60088002E00020088000BF82
:101A100000BF0020704701469248407A30B101284B
:101A200007D0022808D003280CD108E00220087053
:101A30000BE00420087008E00820087005E0102082
:101A4000087002E04FF0FF30704700BF8548C07C4F
:101A500018B108784006000E08700020F4E701462F
:101A60008048C07A082817D2DFE800F01704070A78
:101A70000D101318BC20088013E06220088010E0CD
:101A80002A2008800DE0142008800AE00A2008803F
:101A900007E00520088004E000BF00BF00200880A8
:101AA00000BF00BF0020704701466E4890F8240038
:101AB00010B14FF0FF3070476A48C089088000209D
:101AC000F9E7014600200880401E704701464FF0AC
:101AD000FF30704701466348007A30B1012807D0D3
:101AE000022808D003280CD108E05F4808600BE00A
:101AF0005E48086008E05E48086005E05D480860F0
:101B000002E04FF0FF30704700BF0020FBE70146C6
:101B10005448407A30B1012808D002280AD003285E
:101B200010D10BE04FF4804008800EE041F69C702D
:101B300008800AE04FF48050088006E04FF400600F
:101B4000088002E04FF0FF30704700BF4548C07C7E
:101B500010B10888401008800020F5E70146414890
:101B6000007C08700020704701463E48807A10B122
:101B70000120087001E0002008700020704738B58F
:101B800004463848807A10B94FF0FF3038BD354AE6
:101B90001268117C334A526810786B460222FEF7B5
:101BA0004FFF10B14FF0FF30F0E79DF801009DF8B6
:101BB000001040EA012000B220800020E6E72DE975
:101BC000FE4F0746884692461D46DDF830B0002697
:101BD0000024244890F8240010B1601EBDE8FE8F58
:101BE000002028701F48807A10B94FF0FF30F5E7C9
:101BF0001C48007C10B94FF0FF30EFE71948007C1B
:101C000000F0400008B1B01CC6B21648007C00F0DD
:101C1000200008B1B01CC6B21248007C00F01000D1
:101C200008B1B01CC6B20F48007C00F0080008B133
:101C3000B01DC6B20B4A1268917A0A4A52681078EF
:101C40006B460222FEF7FCFE10B14FF0FF30C5E7F5
:101C50009DF801009DF8001040EA0129B1450BDA1A
:101C60000020BBE75C00002000000343000083422B
:101C70003333034233338341FC4840684088B9EB37
:101C8000600F17DDF94A1268517CF84A52681078E3
:101C90006B460122FEF7D4FE10B14FF0FF309DE7F6
:101CA0009DF8000000F0100020B1FFF783F96FF0FD
:101CB000010093E75046FFF7EAFCEC4A1268D17A3C
:101CC000EA4A526810786B463246FEF7B9FE10B108
:101CD0004FF0FF3082E799FBF6F0401E8BF80000D2
:101CE00000202870B4422AD0E048007C00F00800B0
:101CF00028B3601C1DF800001DF8041040EA012004
:101D000000B2A8F80000E01C1DF80010A01C1DF88F
:101D1000000041EA002000B2A8F80200601D1DF892
:101D20000010201D1DF8000041EA002000B2A8F8B4
:101D30000400287840F008002870A01D84B2B44246
:101D400013D0CA48007C00F0400070B1601C1DF840
:101D500000001DF8041040EA012000B23880287805
:101D600040F040002870A01C84B2B44213D0BF4899
:101D7000007C00F0200070B1601C1DF800001DF810
:101D8000041040EA012000B27880287840F020005A
:101D90002870A01C84B2B44213D0B448007C00F078
:101DA000100070B1601C1DF800001DF8041040EA1E
:101DB000012000B2B880287840F010002870A01CE4
:101DC00084B200200AE7F8B504460F461646A74835
:101DD00090F8240010B94FF0FF30F8BDA348807A86
:101DE00010B94FF0FF30F8E7A04A1268917A9F4A85
:101DF000526810786B460222FEF722FE10B14FF0B7
:101E0000FF30EAE79DF801009DF8001040EA012547
:101E1000A54203DA00203070401EDEE79348406898
:101E20004088B5EB600F17DD904A1268517C8F4AED
:101E3000526810786B460122FEF702FE10B14FF097
:101E4000FF30CAE79DF8000000F0100020B1FFF756
:101E5000B1F86FF00100C0E7E2B2844B1B68D97A99
:101E6000824B5B6818783B46FEF7EAFD10B14FF0F5
:101E7000FF30B2E795FBF4F0401E30700020ACE775
:101E800001467A4880F82210002070477CB505464C
:101E900076494968087801AB04220D21FEF7D0FD90
:101EA00008B107207CBD9DF80700C0F301109DF824
:101EB000041001F0E00140EAE1008DF800009DF817
:101EC0000700C0F381009DF8051001F0E00140EA31
:101ED000E1008DF801009DF8070000F003009DF877
:101EE000061001F0E00140EAE1008DF80200002454
:101EF0001CE01DF8040018B9002045F8240013E088
:101F00005B4845F8240006E055F82400594907F0DD
:101F100027FD45F824001DF80400401EC0B20DF84E
:101F200004000028F0D100BF601CC4B2032CE0DB29
:101F30000020B7E72DE9FE4F06460F46002568460C
:101F4000FFF7A4FF002442E056F8240057F82410BD
:101F5000A0EB010ABAF1000F01DB514601E0CAF122
:101F60000001084607F09CFC83464FF08F4107F0C4
:101F700065FB80465DF82400002107F021FC16D0A7
:101F80005DF82410404607F059FB82464FF07E5121
:101F900007F0EEFD814629F0004A3748416A504675
:101FA00007F0AAFD12D20120A04005430EE03248FE
:101FB000C169404607F0A0FC05D32F48016A40469E
:101FC00007F09AFD02D20120A0400543641C032CB7
:101FD000BADB2846BDE8FE8F2DE9FC5F06460F46BA
:101FE000002522494968087801AB03220D21FEF73C
:101FF00027FD10B10720BDE8FC9F9DF8040000F00C
:102000001F008DF804009DF8050000F01F008DF8FA
:1020100005009DF8060000F01F008DF80600002462
:1020200062E056F8240057F82410A0EB010BBBF136
:10203000000F01DB594601E0CBF10001084607F033
:102040002FFC4FF08F41009007F0F8FA814601A86D
:10205000005DC0B30849086807F03AFC834659465A
:10206000064807F0EBFA80460FE000005C00002015
:102070007B14AE3E1D5A843F789D000800B04C454D
:10208000FE49404607F06CFC804601A8005D401EFA
:10209000C0B201A908550028F2D14146484607F0D0
:1020A000CDFA83464FF07E5107F062FD82462AF05A
:1020B000004BF3488169584607F01EFD13D20120FA
:1020C000A04005430FE0FFE7ED480169484607F0EF
:1020D00013FC05D3EA484169484607F00DFD02D2DA
:1020E0000120A0400543641C032C9ADB284682E7AC
:1020F0002DE9F04F87B005460C46914601208DF83A
:10210000100000208DF81100DE4A1268917CDD4A33
:102110005268107804AB0222FEF747FD20B14FF061
:10212000FF3007B0BDE8F08FC820FEF7DCF90020D3
:102130008DF81000D34A1268D17BD24A52681078C9
:1021400004AB0122FEF731FD10B14FF0FF30E8E79C
:10215000CC4A12685179CB4A5268107804AB0122FC
:10216000FEF723FD10B14FF0FF30DAE7C54A1268E1
:10217000917CC44A5268107804AB0122FEF715FD29
:1021800010B14FF0FF30CCE7BE4A1268D17DBD4A96
:102190005268107804AB0122FEF707FD10B14FF032
:1021A000FF30BEE7B74A12681179B64A5268107814
:1021B00004AB0122FEF7F9FC10B14FF0FF30B0E79D
:1021C0000C208DF81000AF4A12681179AD4A5268A0
:1021D000107804AB0122FEF7E8FC10B14FF0FF309D
:1021E0009FE70F20FEF77FF9A648806A407A8DF8B6
:1021F0001000A44A12689178A24A5268107804AB81
:102200000122FEF7D2FC10B14FF0FF3089E79D4864
:10221000806A007A8DF810009A4A12685178994ABB
:102220005268107804AB0122FEF7BFFC10B14FF0EA
:10223000FF3076E7B9F1000F07D09248806A807AC4
:1022400040F0E0008DF8100004E08E48806A807A4B
:102250008DF810008B4A126891798A4A526810787A
:1022600004AB0122FEF7A1FC10B14FF0FF3058E79C
:10227000B9F1000F07D08348806AC07A40F0E000CF
:102280008DF8100003E07E48C07A8DF810007D4A7A
:102290001268D1797B4A5268107804AB0122FEF7AC
:1022A00084FC10B14FF0FF303BE7B9F1000F02D0D2
:1022B000C820FEF718F940208DF81000714A126806
:1022C0001179704A5268107804AB0122FEF76DFC58
:1022D00010B14FF0FF3024E778208DF81000694AE4
:1022E00012685179674A5268107804AB0122FEF7F0
:1022F0005CFC10B14FF0FF3013E761498889FEF7AD
:10230000F2F800208DF810005E4A126851795D4A9B
:102310005268107804AB0122FEF747FC10B14FF071
:10232000FF30FEE6574A1268917A564A5268107892
:1023300004AB0222FEF784FB10B14FF0FF30F0E651
:102340009DF811009DF8101040EA012B0C209BFB1A
:10235000F0F0C6B20020A86068602860A0606060ED
:102360002060824665E0474A1268D17A454A526841
:10237000107804AB0C22FEF763FB10B14FF0FF3076
:10238000CFE69DF811009DF8101040EA012000B240
:10239000ADF808009DF813009DF8121040EA0120E6
:1023A00000B2ADF80A009DF815009DF8141040EA3F
:1023B000012000B2ADF80C00BDF9081020680844F7
:1023C0002060BDF90A10606808446060BDF90C1017
:1023D000A0680844A0609DF817009DF8161040EA18
:1023E000012000B2ADF800009DF819009DF818100A
:1023F00040EA012000B2ADF802009DF81B009DF8F4
:102400001A1040EA012000B2ADF80400BDF9001036
:10241000286808442860BDF90210686808446860AC
:10242000BDF90410A8680844A8600AF1010000F092
:10243000FF0AB24597DB1248D0F800C02868C117E0
:10244000090441EA1041070462460023384604F0BB
:10245000A6FC32460023CDE9020104F0A0FC28606E
:102460000748D0F800C06868C117090441EA104164
:10247000070462460023384606E0000054E3853F27
:10248000789D00085C00002004F089FC324600239F
:10249000CDE9020104F083FC6860FE48D0F800C07A
:1024A000A868C117090441EA1041070462460023E5
:1024B000384604F074FC32460023CDE9020104F0F2
:1024C0006EFCA860F348D0F804C02068C117090466
:1024D00041EA1041070462460023384604F05FFCDD
:1024E00032460023CDE9020104F059FC2060E9489E
:1024F000D0F804C06068C117090441EA104107041C
:1025000062460023384604F04AFC32460023CDE9F7
:10251000020104F044FC6060DE48D0F804C0A0680A
:10252000C117090441EA10410704624600233846F6
:1025300004F035FC32460023CDE9020104F02FFC03
:10254000A060A068002804DDA068A0F58030A0602D
:1025500003E0A06800F58030A0600020E1E538B518
:102560000446CD4890F82400A04201D1002038BD97
:1025700024B3C94890F8250010B94FF0FF30F6E7B2
:102580000020FEF74BFB0020FEF770FCC249C88C10
:10259000FEF7DDFE00200090BF49496808786B46D1
:1025A00001222321FEF701FB0121BB4880F8241002
:1025B0000120FEF733FBFEF7FDFC13E00020FEF7E1
:1025C0002DFBB548007C0090B349496808786B46FC
:1025D00001222321FEF7E9FA0021AF4880F82410F8
:1025E000FEF7E8FC0020C2E72DE9F04F8DB08346EE
:1025F0000F4602200C90A84890F8240020B100203B
:10260000FFF7ADFF012600E0002603A8FFF7E3F97E
:1026100005A8FFF700FA01A8FFF721FA02A8FFF7C3
:1026200043FA9D4890F80AA004A8FFF797FA0024FF
:1026300007E0002239465846FFF75AFD00B902E08C
:10264000641C022CF5DB00BF022C01D1002528E020
:10265000002407E0012206A909A8FFF749FD00B9F7
:1026600002E0641C022CF5DB00BF022C01D1002526
:1026700017E006A93846FFF75DFC00F0FF0809A93E
:102680005846FFF7A9FC00F0FF090025B9F1000F3B
:1026900001D145F00105B8F1000F01D145F0020567
:1026A00000BFFF207C490872FF217B484172C17244
:1026B0004FF6FF71C181FF21817201740121017305
:1026C000BDF80C00FEF7D1FE9DF81400FEF78BFE5E
:1026D000BDF80400FEF78FFDBDF80800FEF737FED9
:1026E0005046FEF75EFB9DF81000FEF74FFD16B159
:1026F0000120FFF734FF28460DB0BDE8F08FF8B594
:1027000004460D46164616B94FF0FF30F8BD624834
:10271000807A10B94FF0FF30F8E720128DF80000F2
:10272000E0B28DF801009DF8010028445A4949683B
:102730004989884202DD4FF0FF30E7E7564A1268C8
:10274000117E554A526810786B460222FEF72DFA28
:1027500010B14FF0FF30D9E7EAB24F4B1B68597DFB
:102760004D4B5B6818783346FEF71FFA10B14FF0F7
:10277000FF30CBE70020C9E7F8B504460D46164602
:1027800016B94FF0FF30F8BD4348807A10B94FF0CA
:10279000FF30F8E720128DF80000E0B28DF801005C
:1027A0009DF8010028443C4949684989884202DD76
:1027B0004FF0FF30E7E7384A1268117E364A526818
:1027C00010786B460222FEF7F0F910B14FF0FF309F
:1027D000D9E7EAB2304B1B68597D2F4B5B681878FC
:1027E0003346FEF72DF910B14FF0FF30CBE7002054
:1027F000C9E72DE9F04385B005460E469046994657
:10280000254890F8250020B14FF0FF3005B0BDE815
:10281000F08316B94FF0FF30F8E7002423E0281BBF
:10282000102801DD102000E0281B87B2321939463C
:102830002046FFF764FF10B14FF0FF30E6E701AA32
:1028400039462046FFF798FF10B14FF0FF30DDE723
:1028500030193A4601A904F013FC10B16FF00100E1
:10286000D4E7E01984B2AC42D9DB4FEA28208DF8D6
:10287000000008F0FF008DF80100074A1268917E01
:10288000054A526810786B460222FEF78EF940B175
:1028900004E00000789D00085C0000204FF0FF304D
:1028A000B4E70121FE4880F82510A0F8269000200A
:1028B000ACE70146FA4890F8240008700020704701
:1028C0004FF0FF30704702464FF0FF30704701462F
:1028D0004FF0FF307047F8B505460F461446002C00
:1028E00070D0B5F5FF5F01DDFF2605E0202D01DA90
:1028F000012601E0C5F3471607B90127282C02DDA0
:102900004FF0FF30F8BDE648407D28BBE44890F822
:10291000240038B10020FFF722FE0121E04880F8B2
:10292000201003E00021DE4880F82010DC4816303B
:10293000FFF751F8DA481830FFF76DF8D8481A3029
:10294000FFF78DF8D6481C30FFF7AEF8D448817AEF
:1029500081771F30FFF702F90020FEF75FF90020B2
:10296000FEF788FC00208DF80000CD4A12689178AF
:10297000CB4A526810786B460122FEF716F910B167
:102980004FF0FF30BEE740208DF80000C44A1268C7
:10299000D17BC34A526810786B460122FEF705F9D5
:1029A00000B165E08DF800608DF80170BC4A1268D6
:1029B000117ABB4A526810786B460222FEF7F5F88E
:1029C00008B155E047E00520FDF78DFDB448407A99
:1029D000072101EBC000C0B28DF80000B04A1268B8
:1029E000D179AF4A526810786B460122FEF7DDF8C4
:1029F00000B13DE020208DF80000012C03D1002023
:102A00008DF801000EE0052C03DC01208DF801009B
:102A100008E0142C03DC02208DF8010002E0032002
:102A20008DF801009DF80100072101EB8010C0B274
:102A30008DF801009A4A1268917C994A5268107880
:102A40006B460222FEF7B1F800B111E00121944873
:102A50004175002056E7924A1632002103E0505C8F
:102A600000B105E0491C0C29F9D34FF0FF3049E7CC
:102A7000FF208B490872FF2189484172C1724FF6CD
:102A8000FF71C181FF21817201740121017301462F
:102A9000887FFEF786F98249C88AFEF7E6FC8049FE
:102AA000087EFEF7A0FC7E49488BFEF7A4FB7C491C
:102AB000888BFEF74CFC7A49C87FFEF767FB7848A5
:102AC00090F8200010B10120FFF749FD0021744863
:102AD0004175002016E770B588B002A905A8FFF778
:102AE00083FD0446072C3ED101A8FEF7F3FF0598AD
:102AF00006F0D6FE0646019906F032FF054606F0BE
:102B000093FE0590069806F0CBFE0646019906F066
:102B100027FF054606F088FE0690079806F0C0FEDF
:102B20000646019906F01CFF054606F07DFE07905B
:102B300005A800F052FA6846FEF7E9FFBDF800105C
:102B4000029848430290BDF8001003984843039050
:102B5000BDF8001004984843049002A800F0D0FA91
:102B6000002008B070BD0120FBE7014691F900206C
:102B7000002A01DD00201EE091F90020002A01DA80
:102B8000042018E091F90120002A01DD012012E063
:102B900091F90120002A01DA05200CE091F90220C8
:102BA000002A01DD022006E091F90220002A01DA64
:102BB000062000E00720704710B504462046FFF7C6
:102BC000D4FF0346E01CFFF7D0FF43EAC00083B206
:102BD000A01DFFF7CAFF43EA801083B2184610BD5C
:102BE00070B50024FDF743FDFEF781FC00283DD1C0
:102BF0007820FEF7D6F8C4B20CB1012070BD782061
:102C0000FEF7C4FAC4B20CB10220F7E76420FEF765
:102C10009EFBC4B20CB10320F0E700F043F9C4B24C
:102C20000CB10420EAE71F48FFF7C6FF054600F095
:102C300043F9C4B20CB10520E0E740F2731000F094
:102C40007CFDC4B20CB10620D8E7642000F0EEFA97
:102C5000C4B20CB10720D1E7FFF73DFF04460120C5
:102C6000FFF77DFCC4B21CB10920C7E70A20C5E705
:102C70000020C3E72DE9F04F99B004460D461646F3
:102C80004FF07E574FF000084FF000094FF0000A58
:102C900012A813A918AB0EAACDE9001014A903E0DD
:102CA0005C0000208800002016A800F0A5FE18B1E6
:102CB000012019B0BDE8F08FBDF84C0000F4807021
:102CC00000287CD00E9806F0EBFD83464FF09D4126
:102CD00006F0B4FC07460F9806F0E2FD83464FF07D
:102CE0009D4106F0ABFC8046109806F0D9FD834666
:102CF0004FF09D4106F0A2FC8146119806F0D0FDF0
:102D000083464FF09D4106F099FC824639464FF0CC
:102D1000804006F025FE4946059006F021FE41461A
:102D200007904FF0404006F01BFE5146059006F01C
:102D300017FE0690079906F013FC834606F0E4FBA5
:102D4000CDE9080105F01AFB4FF06632544BCDE98E
:102D50000A0106F0FFF8CDE90C0105F061FE2060E4
:102D600049464FF0804006F0FBFD4946029006F0D0
:102D7000F7FD414604904FF0404006F0F1FD41461A
:102D8000029006F0EDFD0390049906F0F1FE8346F3
:102D90004FF07E5106F0E4FB059006F0B5FBCDE95F
:102DA000080139464FF0804006F0DAFD41460390B5
:102DB00006F0D6FD494604904FF0804000E06AE0FE
:102DC00006F0CEFD5146039006F0CAFD83460499F5
:102DD00006F0C6FB059006F097FBCDE90601DDE99C
:102DE000082305F013FD4FF066322D4BCDE90A01A3
:102DF00006F0B0F8CDE90C0105F012FE286051464E
:102E0000504606F0ADFD49460490484606F0A8FD40
:102E100041460390404606F0A3FD394601903846EE
:102E200006F09EFD0090019906F09AFB029003992E
:102E300006F09EFE8346049906F09AFE059006F081
:102E400063FBCDE908015146384606F089FD494645
:102E50000490404606F084FD0390049906F080FB40
:102E60004FF08041059006F07BFD834606F04CFB59
:102E7000CDE90601DDE9082305F0C8FC4FF0663214
:102E8000074BCDE90A0106F065F8CDE90C0105F024
:102E9000C7FD306001E002200BE7002009E70000D9
:102EA00066A64C4010B5C8234FF48062F74940F63F
:102EB000F630FFF79EFC10BD10B586B00446F4A0B6
:102EC00000680390F3A000680290F3A000680190EE
:102ED000F2A00068009004F0030003A9085C8DF8DC
:102EE000140003A8C4F3C101405C8DF8150003A8C9
:102EF000C4F38111405C8DF8160004F0030002A9B0
:102F0000085C8DF8100002A8C4F3C101405C8DF884
:102F1000110002A8C4F38111405C8DF8120005AACB
:102F2000032140F22640FFF7EAFB18B14FF0FF30D3
:102F300006B010BD04AA032140F22A40FFF7DFFBD0
:102F400010B14FF0FF30F3E701980590009804901E
:102F500004F0040058B19DF8140040F001008DF811
:102F600014009DF8100040F001008DF8100004F0EE
:102F7000200058B19DF8150040F001008DF81500B3
:102F80009DF8110040F001008DF8110004F48070EC
:102F900058B19DF8160040F001008DF816009DF81C
:102FA000120040F001008DF8120005AA03214FF431
:102FB0008860FFF7A4FB10B14FF0FF30B8E704AA18
:102FC000032140F23140FFF79AFB10B14FF0FF3080
:102FD000AEE7B34804810020AAE71FB50446B04815
:102FE000007A00F0030054F820000190AC48007A09
:102FF00000F0040010B1019840420190A848007A06
:10300000C0F3C10054F820000290A548007A00F0F7
:10301000200010B1029840420290A148007AC0F30B
:10302000811054F8200003909D48008900F48070BE
:1030300010B10398404203909A49019880FB010126
:10304000800F40EA810001909649029880FB0110B0
:10305000820042EA917002909249039880FB01102D
:10306000820042EA917003900198000E8DF80000F2
:103070000198000C8DF801000198000A8DF80200FB
:103080000198C0B28DF803006A4604214FF47470B1
:10309000FFF735FB18B14FF0FF3004B010BD0298B8
:1030A000000E8DF800000298000C8DF801000298C7
:1030B000000A8DF802000298C0B28DF803006A463B
:1030C00004214FF47570FFF71AFB10B14FF0FF3079
:1030D000E3E70398000E8DF800000398000C8DF8CC
:1030E00001000398000A8DF802000398C0B28DF821
:1030F00003006A4604214FF47670FFF700FBCCE72B
:1031000070B588B0064601A8FEF701FDBDF80400C1
:103110000021C90341EA5045C4036148007A00F028
:10312000030056F8200005905D48007A00F0040086
:1031300010B10598404205905948007AC0F3C1008B
:1031400056F8200006905648007A00F0200010B192
:103150000698404206905248007AC0F3811056F813
:10316000200007904E48008900F4807010B1079845
:10317000404207900598C117A0FB042301FB0431CE
:1031800000FB0510810041EA927005900698C11776
:10319000A0FB042301FB043100FB0510810041EA80
:1031A000927006900798C117A0FB042301FB04311D
:1031B00000FB0510810041EA927007900598000E0F
:1031C0008DF808000598000C8DF809000598000A94
:1031D0008DF80A000598C0B28DF80B000698000E15
:1031E0008DF80C000698000C8DF80D000698000A6A
:1031F0008DF80E000698C0B28DF80F000798000EEB
:103200008DF810000798000C8DF811000798000A3F
:103210008DF812000798C0B28DF8130002AA0C2195
:103220004FF42570FFF76BFA08B070BD30B585B06C
:1032300004461DA207CA02AB07C3C82C03DD4FF02A
:10324000FF3005B030BDC82090FBF4F0401E85B2C1
:10325000280A8DF80000E8B28DF801006A460221C4
:1032600040F21620FFF74BFA10B14FF0FF30E8E7BD
:1032700002AA0C2140F6C120FFF741FA10B14FF02D
:10328000FF30DEE7064884810020DAE7A09D0008D1
:103290004CCD6C000CC92C003656760026466600D4
:1032A000E405002009E3CA02FEF2ABC4AAF1DFDFA5
:1032B000BBAFDFDF0146FC488089088000207047F3
:1032C0002DE9FC4706460F4606F0070010B1B7F59A
:1032D000C86F03DD4FF0FF30BDE8FC87384606F0CD
:1032E000F7FA8146F14906F0A9F980466846FEF7EB
:1032F00092FB9DF80000022806D0042816D008286A
:1033000026D0102848D135E04FF08D41404606F0D8
:1033100027FB814606F0A4FA84B2E549404606F050
:103320001FFB814606F09CFA85B238E04FF08C41D5
:10333000404606F015FB814606F092FA84B2DD495C
:10334000404606F00DFB814606F08AFA85B226E07B
:103350004FF08B41404606F003FB814606F080FAB1
:1033600084B2D549404606F0FBFA814606F078FA69
:1033700085B214E04FF08A41404606F0F1FA8146EA
:1033800006F06EFA84B2CD49404606F0E9FA81466D
:1033900006F066FA85B202E04FF0FF309CE700BF0E
:1033A00020128DF80400E0B28DF8050028128DF887
:1033B0000600E8B28DF8070006F00100A0B101AAEE
:1033C00002214FF4EA70FFF79AF910B14FF0FF3085
:1033D00082E70DF1060202214FF49270FFF78FF998
:1033E00010B14FF0FF3077E706F00200A0B101AA5C
:1033F00002214FF4EC70FFF782F910B14FF0FF306B
:103400006AE70DF1060202214FF49470FFF777F995
:1034100010B14FF0FF305FE706F00400A0B101AA41
:1034200002214FF4EE70FFF76AF910B14FF0FF3050
:1034300052E70DF1060202214FF49670FFF75FF993
:1034400010B14FF0FF3047E7002045E738B504469C
:103450000020009004F0010020B19DF8000040F031
:103460003000009004F0020020B19DF8000040F010
:103470000C00009004F0040020B19DF8000040F022
:10348000030000906A4601214FF4A470FFF737F95A
:1034900038BD38B50446012C01DA012402E0042CC1
:1034A00000DD0424601EC0B200906A46012140F293
:1034B0004F10FFF724F938BD38B50446052094FBBA
:1034C000F0F085B228128DF80000E8B28DF8010006
:1034D0006A4602214FF4EF70FFF711F938BD38B595
:1034E0000446052094FBF0F085B228128DF8000008
:1034F000E8B28DF801006A4602214FF4ED70FFF743
:10350000FEF838BDF8B505460E464FF47A7095FBC7
:10351000F0F000FB06F4200E8DF80000200C8DF872
:103520000100200A8DF80200E0B28DF803006A461F
:1035300004214FF4AE70FFF7E2F8F8BD38B5044649
:10354000052094FBF0F084B220128DF80000E0B268
:103550008DF801006A4602214FF4AD70FFF7CFF8F5
:1035600038BD38B50446052094FBF0F084B2201233
:103570008DF80000E0B28DF801006A4602214FF498
:10358000AC70FFF7BCF838BD38B5044614B94FF03D
:10359000FF3038BD6A4604214FF45870FFF7ECF84D
:1035A00010B14FF0FF30F4E79DF8000000069DF8E1
:1035B000011040EA01409DF8021040EA01209DF808
:1035C0000310084320600020E3E738B50446200ECE
:1035D0008DF80000200C8DF80100200A8DF8020003
:1035E000E0B28DF803006A4604214FF45870FFF7EB
:1035F00086F838BD38B5044614B94FF0FF3038BDF1
:103600006A4604214FF47170FFF7B6F810B14FF01D
:10361000FF30F4E79DF8000000069DF8011040EA35
:1036200001409DF8021040EA01209DF80310084374
:1036300000EB8000800020600020E0E738B5044601
:103640001420B4FBF0F4200E8DF80000200C8DF84F
:103650000100200A8DF80200E0B28DF803006A46EE
:1036600004214FF47170FFF74AF838BD38B50446AD
:1036700064B120208DF8000028208DF80100302052
:103680008DF8020038208DF8030004E0A322042105
:10369000684603F040FD6A46042140F69E20FFF78D
:1036A0002EF8FDF787FC38BDE405002000004843F4
:1036B000000040460000C045000040450000C044F6
:1036C00038B5044664B1C0208DF80000C2208DF8E2
:1036D0000100C4208DF80200C6208DF8030004E02C
:1036E0008B220421684603F016FD6A46042140F649
:1036F0009820FFF704F8FDF75DFC38BD3EB50446A1
:103700006CB1FDA1D1E900208968CDE900200291CA
:103710006A4609214FF49760FEF7F1FF3EBDF9A21A
:10372000D2E900109268CDE9010200916A460921B0
:103730004FF49760FEF7E3FFF0E73EB50446022042
:103740008DF80000CA208DF80100E3208DF80200FA
:1037500009208DF803006A4604216820FEF7CFFF98
:10376000A3208DF8000004F0400048B1C0208DF87F
:103770000100C8208DF80200C2208DF8030006E089
:10378000A3208DF801008DF802008DF8030004F4E9
:10379000C07048B1C4208DF80400CC208DF805001D
:1037A000C6208DF8060006E0A3208DF804008DF8F1
:1037B00005008DF80600A3208DF807008DF808009D
:1037C0008DF809006A460A2140F6A720FEF797FF08
:1037D00004F0030018B120208DF8000002E0D8208A
:1037E0008DF800006A46012140F6B620FEF787FFFB
:1037F00004F0200018B10120FFF780FF02E0002054
:10380000FFF77CFF04F4C07008B304F4807060B16B
:10381000B2208DF800008B208DF80100B6208DF8C5
:1038200002009B208DF803000BE0B0208DF8000013
:1038300080208DF80100B4208DF8020090208DF8D2
:1038400003006A46042140F6A220FEF758FF04F068
:10385000010020B3F8208DF800006A4601214FF4E2
:103860000B60FEF74CFFFA210720FFF729FD072028
:10387000FFF7ECFD0120FFF70CFE6420FFF71CFEB4
:103880004FF4FA70FFF72BFEC821A148FFF73AFE6C
:103890002820FFF753FE0A20FFF763FE08E0D82038
:1038A0008DF800006A4601214FF40B60FEF727FFF8
:1038B00004F0020018B1D9208DF8000002E0D820F1
:1038C0008DF800006A46012140F23D70FEF717FFB7
:1038D00004F0040018B10120FFF7F2FE02E000201E
:1038E000FFF7EEFE04F0100018B10120FFF7BEFE56
:1038F00002E00020FFF7BAFE44F008008549488145
:10390000FDF758FB00208349887304F0400018B18C
:103910000846807B801D887304F4C07020B17D4808
:10392000807B801D7B49887304F0140020B17948A6
:10393000807B10307749887304F0030020B175480C
:10394000807B001D7349887300203EBD014671488D
:1039500040890880002070472DE9F0410446E07856
:1039600000F0C006E07800F03F05607800F001004C
:1039700098B1EF102846E91705EB5171C910A5EB76
:10398000C101491C01F0FF086248006820B161488C
:10399000414602683846904700BF607800F0080052
:1039A00030B15C48406818B1B0115A4A5168884734
:1039B0000020BDE8F08110B586B0044656A207CAC3
:1039C00003AB07C357A207CA8DE80700012C09D033
:1039D000022C0ED103AA0B2140F68220FEF78FFEA7
:1039E00006B010BD6A460B2140F68220FEF787FE26
:1039F000F6E74FF0FF30F3E72DE9F04F8DB00746C3
:103A0000884615469946DDE9166B00240020308073
:103A10004049887B5A4605A9FEF7D5F918B1601EC2
:103A20000DB0BDE8F08F3B48807A00F0140000280C
:103A300061D09DF8140000069DF8151040EA014081
:103A40009DF8161040EA01209DF8171008432860E1
:103A50009DF8180000069DF8191040EA01409DF8F5
:103A60001A1040EA01209DF81B10084368609DF879
:103A70001C0000069DF81D1040EA01409DF81E1034
:103A800040EA01209DF81F100843A8609DF820001F
:103A900000069DF8211040EA01409DF8221040EAFE
:103AA00001209DF823100843E86004F11000C4B21F
:103AB000286800140190686800140290A868001437
:103AC0000390E8680014049001984043029901FBB8
:103AD0000100039901FB0100049901FB010ABAF1FD
:103AE000706F02DBBAF1885F22DDFDF763FA002018
:103AF0003080401E94E721E0B8AAB38DB4980D350C
:103B00005D000000B8AAAAAAB088C3C5C70000001B
:103B100009E3CA02E4050020D8B1B9F38BA391B63A
:103B200009B4D900DAB1B9F38BA391B6DAB4DA00EB
:103B3000B6F9000040F48070308000BF3448807ACD
:103B400000F0400020B305A9601C085C095D40EA54
:103B5000012000B2A8F8000005A9E01C095C05AA34
:103B6000A01C105C41EA002000B2A8F8020005A9E0
:103B7000601D095C201D105C41EA002000B2A8F81D
:103B80000400A01DC4B2B6F9000040F00800308067
:103B90001F48408900F4C07008B305A9601C085C88
:103BA000095D40EA012000B2388005A9E01C095CEB
:103BB00005AAA01C105C41EA002000B2788005A98B
:103BC000601D095C201D105C41EA002000B2B88035
:103BD000A01DC4B2B6F9000040F0700030800C485F
:103BE000807A00F0030018B105A90819FFF7B4FEA8
:103BF0004846FDF74CFD002012E7014604480160ED
:103C000000207047014602484160002070470000D4
:103C1000E405002010B50121F94801F03AFD022128
:103C2000F74801F036FD0221F54801F034FD01218D
:103C3000F34801F030FD10BD10B50121F04801F04E
:103C400028FD0221EE4801F026FD0221EC4801F09A
:103C500020FD10BD10B50121E94801F01AFD012138
:103C6000E74801F018FD10BD2DE9F04105462C464E
:103C70000121E34801F00FFD002619E0274607F077
:103C80008007802F04D10221DD4801F002FD03E00E
:103C90000221DB4801F0FFFC6006040E0121D84838
:103CA00001F0F7FC0121D64801F0F5FC701CC6B20A
:103CB000082EE3DBBDE8F08110B50446FFF7AAFF4C
:103CC0007820FFF7D1FFFFF7C5FF0020FFF7CCFFFB
:103CD000FFF7C0FF2046FFF7C7FFFFF7BBFFFFF767
:103CE000ABFF10BD10B50446FFF794FF7820FFF737
:103CF000BBFFFFF7AFFF4020FFF7B6FFFFF7AAFFBC
:103D00002046FFF7B1FFFFF7A5FFFFF795FF10BDB6
:103D100070B504460D461DB1E0B2FFF7E3FF02E0C7
:103D2000E0B2FFF7C9FF70BD70B50646002418E089
:103D300004F1B0000021FFF7EBFF00210846FFF778
:103D4000E7FF00211020FFF7E3FF002505E0012138
:103D50003046FFF7DDFF681CC5B2802DF7DB601C25
:103D6000C4B2082CE4DB70BD06E041F6650100E05A
:103D7000491E0029FCD1401E0028F6D1704701469B
:103D800005E0002001E0421CD0B27B28FBDB0A1ECC
:103D9000A1F10101F5D1704770B504460D4605F15A
:103DA000B0000021FFF7B4FF102141EA14100021F8
:103DB000FFF7AEFF04F00F000021FFF7A9FF70BD71
:103DC00010B500218D20FFF7A3FF00211420FFF77D
:103DD0009FFF0021AF20FFF79BFF10BD10B5002112
:103DE0008D20FFF795FF00211020FFF791FF0021A4
:103DF000AE20FFF78DFF10BD70B500241CE004F16C
:103E0000B0000021FFF784FF00210846FFF780FF84
:103E100000211020FFF77CFF002509E000207949F0
:103E200001EBC50108550121FFF772FF681CC5B2FF
:103E3000802DF3DB601CC4B2082CE0DB70BD70B5D4
:103E4000002418E004F1B0000021FFF761FF002119
:103E50000846FFF75DFF00211020FFF759FF0025FE
:103E600005E001210846FFF753FF681CC5B2802D0D
:103E7000F7DB601CC4B2082CE4DB70BD2DE9F04711
:103E800006460D4617464FF000097F2E01DC3F2DF8
:103E900001DDBDE8F087012411E00020594901EB64
:103EA000C601085521463046FFF776FF554901EB1C
:103EB000C601085D0121FFF72BFF601CC4B2082C6E
:103EC000EBDB2846E91705EB5171C1F3C704E9178D
:103ED00005EB5171C910A5EBC101C1F1070101F05A
:103EE000FF08C8F107010120884000F0FF09002009
:103EF000444901EBC60108554FB1424800EBC600EA
:103F0000005D40EA09003F4901EBC6010855214622
:103F10003046FFF741FF3B4901EBC601085D012137
:103F2000FFF7F6FE00BFB4E770B500241BE004F114
:103F3000B0000021FFF7ECFE00210846FFF7E8FE85
:103F400000211020FFF7E4FE002508E02D4901EBD9
:103F5000C501085D0121FFF7DBFE681CC5B2802D9D
:103F6000F4DB601CC4B2082CE1DB70BD70B5054603
:103F7000012409E021462846FFF70EFF0121002019
:103F8000FFF7C6FE601CC4B2082CF3DB70BD2DE940
:103F9000F04707460E469046994600250024A8F1B2
:103FA0002000C5B27F2F02DD0027B01CC6B2B9F1D8
:103FB000100F2BD131463846FFF7EEFE002408E003
:103FC00004EB0511104A505C0121FFF7A1FE601CB3
:103FD000C4B2082CF4DB701CC1B23846FFF7DCFE1B
:103FE000002409E004EB05110831074A505C012167
:103FF000FFF78EFE601CC4B2082CF3DB19E0000052
:10400000000C0140F4050020BEAB000831463846E4
:10401000FFF7C2FE00240AE005EB4501F24A02EB7D
:104020004101085D0121FFF773FE601CC4B2062C3C
:10403000F2DBBDE8F08710B50246012000E05043F6
:104040000B1EA1F10104E1B2F9D110BD2DE9FF5F12
:10405000074691461E460E9D4FF0000A002435E0AB
:10406000301B401EC1B20A20FFF7E5FFB9FBF0F09C
:104070000A21B0FBF1F201FB1208BAF1000F14D1D2
:10408000701EA04211DDB8F1000F0CD1AB4605EB5C
:10409000DB71491001FB0471C8B22B462022019943
:1040A000FFF775FF10E04FF0010AAB4605EBDB713F
:1040B000491001FB0471C8B208F13001CAB22B46A5
:1040C0000199FFF764FF00BF601CC4B2B442C7DBB4
:1040D000BDE8FF9F2DE9FF4F83B0064691461F467E
:1040E000109C00200290002538E0484605F0B8FBFF
:1040F0008246781B401EC1B20A20FFF79CFFBAFB24
:10410000F0F00A21B0FBF1F201FB12080298A0B90D
:10411000781EA84211DDB8F1000F0CD1A24604EBC5
:10412000DA71491001FB0561C8B2234620220499C7
:10413000FFF72DFF10E001200290A24604EBDA7198
:10414000491001FB0561C8B208F13001CAB223462B
:104150000499FFF71CFF00BF681CC5B2BD42C4DB59
:10416000484605F07DFB009005F0B2FB4946019002
:1041700005F0F3FC83469D4905F0F2FB824605F00D
:104180006FFB00F0FF08A24604EBDA71491001FB57
:104190000561C8B223462E220499FFF7F8FE04EB0E
:1041A000DA714B10691C03FB0161C8B208F13001E0
:1041B000CAB223460499FFF7EAFE07B0BDE8F08FC4
:1041C0002DE9F04104460F461546984600260FE0BB
:1041D000AA5D434639462046FFF7D9FE04F10800A0
:1041E000C4B2782C02DD0024B81CC7B2701CC6B261
:1041F000A85D0028ECD1BDE8F0812DE9F0418046B2
:104200000E461546002731464046FFF7C5FD0024FF
:104210000AE0774A02EB8511085D0121FFF778FD7E
:10422000781CC7B2601CC4B2102CF2DB701CC1B287
:104230004046FFF7B1FD00240CE06900491C6C4AC0
:1042400002EB4111085D0121FFF762FD781CC7B246
:10425000601CC4B2102CF0DBBDE8F0812DE9F05FEA
:1042600006460F4690461C46DDF828A04FF0000B8E
:10427000E11704EB5171C910A4EBC10131B920461B
:10428000E11704EB5171C1F3C70506E02046E117C1
:1042900004EB5171C910491CCDB23D4615E02946C9
:1042A0003046FFF779FDB1460BE059460BF1010BA3
:1042B0001AF801000121FFF72BFD09F1010000F0C0
:1042C000FF09C145F1DB681CC5B2A542E7DBBDE8CB
:1042D000F09F08B50121082001F0EAFB0320ADF8AA
:1042E000000010208DF8030003208DF802006946BD
:1042F000404801F021F903213E4801F0CAF9C820E5
:10430000FCF7F1F84FF44870FCF7EDF80021AE200F
:10431000FFF7FEFC00210846FFF7FAFC0021102001
:10432000FFF7F6FC00214020FFF7F2FC0021B0204F
:10433000FFF7EEFC00218120FFF7EAFC0021FF20BF
:10434000FFF7E6FC0021A120FFF7E2FC0021A620F8
:10435000FFF7DEFC0021A820FFF7DAFC00213F2058
:10436000FFF7D6FC0021C820FFF7D2FC0021D320A4
:10437000FFF7CEFC00210846FFF7CAFC0021D5203C
:10438000FFF7C6FC00218020FFF7C2FC0021D820E7
:10439000FFF7BEFC00210520FFF7BAFC0021D92061
:1043A000FFF7B6FC0021F120FFF7B2FC0021DA2074
:1043B000FFF7AEFC00211220FFF7AAFC0021DB2052
:1043C000FFF7A6FC00213020FFF7A2FC00218D2082
:1043D000FFF79EFC00211420FFF79AFC0021AF207C
:1043E000FFF796FC08BD000096A9000800002041D8
:1043F00091000020000C01402DE9F04705460C46D5
:10440000204605F04DFA8246FE480168504605F008
:10441000A7FA8046284605F043FA8246FA48016822
:10442000504605F09DFA8146414605F0A1FB07463E
:1044300005F0FAF906463046BDE8F0872DE9F84F59
:1044400004460D461646F14FA819001BF0490860B6
:10445000F048006805F024FA8346394605F080FAF2
:104460008146EB48006805F01BFA834639464FF059
:104470007E5005F07DFB5946009005F071FA8246AA
:10448000494605F06DF8804605F0CEF9E24908602E
:1044900008460068DF490860E0480068DE490968AE
:1044A0000844DE49086008460068B0F5FA5F02DD9E
:1044B0004FF4FA5008E0D948006810F5FA5F01DAC5
:1044C000D74801E0D5480068D4490860D54800784D
:1044D000012803D100200860D2490870CF48006845
:1044E00005F0DEF98346D0480168584605F038FAF1
:1044F0008146C948006805F0D3F98346CB48016876
:10450000584605F02DFA8246494605F029F88046BE
:1045100005F08AF9C649086008460068BDE8F88FCA
:104520002DE9F05F05460E4614460021204605F0B1
:104530001FFB8346BF480168584605F011FA8146C3
:104540003146284605F009FB8346BB4801685846BA
:1045500005F006FA8246494605F002F8804605F065
:1045600063F907463846BDE8F09F2DE9F041202069
:1045700000F068FF002874D0B0480068002871D1AE
:10458000202000F070FF022000F043FA4042AC49C6
:104590000860042000F03DFAAA490860AA4AAB4925
:1045A000AB48FEF767FBAB4AAB49AC48FCF7ADFA4A
:1045B000AB4AAC49AC48FCF7D0FAA5480068A4491E
:1045C0000860AA480078F0B9A9480078D8B9002155
:1045D000A848006805F090FA07D24FF07E51A54830
:1045E000006805F0C5FAA34908600021A1480068E9
:1045F00005F082F907D24FF07E519E48006804F022
:10460000AFFF9C4908609948007801280AD14FF013
:104610007E519848006804F0A3FF96490860012085
:10462000804908709248007801280AD14FF07E51E5
:104630009048006805F09CFA8E490860012079498D
:1046400008708D498B48006805F056FA01D28A48F7
:104650000BE08A498748006805F04EF903D2874885
:1046600003E038E133E18348006882490860844808
:10467000007810BB83480078F8B9002182480068B0
:1046800005F03AFA07D24FF07E517F48006805F0F6
:104690006FFA7D49086000217B48006805F02CF91D
:1046A00007D24FF07E517848006804F059FF7649F0
:1046B00008604FF07E505449086071480078012826
:1046C0000CD172497048006804F04AFF6E490860D6
:1046D00001205449087000204B490860694800785F
:1046E00001280CD169496848006805F041FA66491B
:1046F000086001204B490870002043490860644964
:104700006148006805F0F8F901D2614809E06149A3
:104710005D48006805F0F0F801D25E4801E05A48B3
:104720000068594908604C48B0F9000005F0B8F835
:1047300005462A464648016857480068FFF7F0FEDC
:10474000564908604B48006805F06EF805463D483C
:1047500002683B4801682846FFF770FE5049086030
:104760004948006805F060F8054629463948B0F91F
:104770000000FFF741FE4B4908604948006805F01A
:104780008FF880462C480168404605F0E9F8064657
:104790004248006805F084F80746314605F0E8F91C
:1047A000054605F041F804463E480068201A3E4997
:1047B00008603C48006820443C4908603A4800F0E2
:1047C000EBF92748B0F9000005F06AF805461D48E6
:1047D00003681B4802681E480168284600F05FFA1B
:1047E00010B1012032490860164802681448016877
:1047F0001748006800F0C2FA10B100202C4959E0B7
:1048000059E00000B4040020B00400203333333FEB
:10481000C8040020D4040020D0040020CC040020D0
:10482000C0E0FFFFD9040020AC040020A804002051
:10483000C4040020A4040020A0040020148121420C
:10484000180000201C0000200800002004000020A8
:1048500000000020100000200E0000200C000020AE
:10486000160000201400002012000020EE0400209A
:10487000EF0400209804002000002042000020C225
:10488000F0040020F10400209C0400200000A0415E
:104890000000F0410000F0C194040020B8040020A2
:1048A000BC040020C0040020280000202C000020B0
:1048B000DC04002008600949094800F0CEF948B935
:1048C000084801680848006800F08FF902E02020DD
:1048D00000F0C9FD00BFBDE8F0810000000000202D
:1048E000940400202C0000202800002000B587B090
:1048F0000121042001F0DCF80121084601F0E5F86F
:1049000004208DF81B000320ADF8180006A95C48B0
:1049100000F012FE03A801F02FFD0020ADF81200F8
:10492000ADF80E004FF6FF70ADF810000020ADF8A6
:104930000C0003A94FF0804001F0F2F900231A4661
:1049400003214FF0804001F0FAFD684601F027FD99
:104950000A20ADF808006946400701F074FC012206
:104960001146900701F053FD00214FF0804001F007
:10497000C7FF0121880701F02FFD07B000BD00B57A
:1049800087B00121082001F093F80121042001F0F3
:104990009CF804208DF81B00C020ADF8180006A973
:1049A000384800F0C9FD03A801F0E6FC0020ADF88E
:1049B0001200ADF80E004FF6FF70ADF810000020A9
:1049C000ADF80C0003A9304801F0AAF900231A46FB
:1049D00003212D4801F0B3FD684601F0E0FC0A20F8
:1049E000ADF808006946284801F02DFC0121264851
:1049F00001F0B8FF01221146234801F008FD002113
:104A0000214801F07DFF01211F4801F0E5FC07B0BE
:104A100000BD70B50546022D02D0042D14D10AE068
:104A20004FF0804001F08FFF04B200214FF0804032
:104A300001F066FF0AE0144801F085FF04B200218E
:104A4000114801F05DFF01E0002400BF00BF2046D7
:104A500070BD10B50121880701F087FF18B1012151
:104A6000880701F093FF10BD10B50121064801F041
:104A70007CFF18B10121044801F088FF10BD00003F
:104A800000080140000C0140000800400EB5012163
:104A9000092001F00DF848208DF803002020ADF822
:104AA000000003208DF802006946304800F044FD04
:104AB0000521012000F056FE2020019001208DF8F4
:104AC0000A0000208DF808000C208DF8090001A8CC
:104AD00000F052FC0EBD08B54FF4A06000F0D0FB12
:104AE00017208DF8000001208DF8030000208DF8BC
:104AF00001008DF80200684600F0C7FB1C208DF80D
:104B0000000001208DF803008DF8010000208DF8D1
:104B10000200684600F0B9FB1E208DF8000001205D
:104B20008DF803008DF801008DF80200684600F052
:104B3000ACFB25208DF8000003208DF801008DF8D6
:104B4000020001208DF80300684600F09EFB27203C
:104B50008DF8000001208DF8030002208DF801007F
:104B60008DF80200684600F090FB08BD000C014083
:104B700008B50121082000F09BFF10208DF80300EC
:104B80004FF47040ADF8000003208DF80200694634
:104B90009E4800F0D1FC08BD9D4B02681B689A42FC
:104BA00002DD9B4A126802609A4B02681B689A42B7
:104BB00002DA984A12680260954B0A681B689A42AA
:104BC00002DD934A12680A60924B0A681B689A4297
:104BD00002DA904A12680A6070470146002901DD36
:104BE0000A4600E04A421046704770B505460C463A
:104BF000002D07DD01208849086000208749C1F8A1
:104C0000BC0106E000208449086001208349C1F806
:104C1000BC012846FFF7E1FF86B23146804801F02B
:104C200073FE002C08DD01207B49091F086000206D
:104C30007A49C1F8B00107E000207749091F0860F0
:104C400001207649C1F8B0012046FFF7C6FF86B2C1
:104C50003146734801F05EFE70BD2DE9F041054616
:104C60000E462968306804F083FF804604F0DCFDBE
:104C70000746FFF7B2FF3C2803DC6A4800680128BA
:104C800009D1694801780078FFF7AFFF0120674933
:104C90000870012400E000242046BDE8F0812DE9E1
:104CA000F04106460F4614461D4661480088E0B9AB
:104CB0002046FFF792FF03462846FFF78EFF184471
:104CC000322805DA5B480088401C5A49088002E017
:104CD000002058490880574800880A2805DD01202F
:104CE0005349088000205349088051480088012812
:104CF00027D151480088401C80B24F490880C828FD
:104D000003DD002008804A4908804C49304604F001
:104D1000F3FE16D24A4801684A4804F021FC804656
:104D2000394604F0E9FD0CD245480168464804F0D4
:104D300017FC8046394604F0DFFE02D202203C49CF
:104D400008803B480088022816D140480088401C53
:104D500080B23E490880642803DD00200880344981
:104D600008806019FFF739FF872805DD00203049EA
:104D700008800120BDE8F0810020FBE72DE9F0412B
:104D800006460C4615462748006810B90020BDE8C5
:104D9000F0812F480088C0B9294801682D4804F0E7
:104DA000DFFB0746314604F0A7FD0ED22448016818
:104DB000294804F0D5FB0746314604F09DFE04D295
:104DC0001CB915B901202249088021480088012812
:104DD00019D122480088401C80B22049088032281E
:104DE00003DD002008801A490880032C0BDD032D09
:104DF00009DD3C2C07DA3C2D05DA00201449088037
:104E000008800120C3E70020C1E70000000C01403A
:104E10002000002024000020B8812142008021428F
:104E2000002C0140DC040020D8040020D90400201C
:104E3000E0040020E2040020E40400200020CB462F
:104E4000940400200000A0C10000A041E60400205E
:104E5000E8040020000020C100002041EA040020F6
:104E600030B589B004460D46012140F6050000F03A
:104E70001FFE18208DF823004FF41060ADF82000BD
:104E800003208DF8220008A91E4800F055FB05A854
:104E900001F072FA0020ADF81A00ADF81600ADF876
:104EA0001850ADF8144005A9174800F039FF6020EC
:104EB000ADF804000020ADF80C000120ADF80600AC
:104EC0000020ADF80A0001A90F4800F066FF01A913
:104ED0000D4801F03CF801210B4801F089FA082146
:104EE000094801F0A9FB0821074801F0C4FB012192
:104EF000054801F071FB0121034801F06DFA09B08A
:104F000030BD000000080140002C01401FB5012108
:104F1000082000F0CDFD0121022000F0D6FD102078
:104F20008DF80F002020ADF80C0003208DF80E0046
:104F300003A9584800F000FB2021564800F0ABFBC5
:104F400004208DF80F004020ADF80C0003A9514853
:104F500000F0F2FA40214F4800F09DFB4E4800F06F
:104F60000BFE40F2E730ADF804004720ADF800003A
:104F70000020ADF80600ADF802006946464800F092
:104F8000CFFE01221146444801F041FAFFF7A3FD8C
:104F90000021414801F020FA1FBD10B500213E4814
:104FA00001F0AEFC00203D49088001213A4801F0A3
:104FB00013FA10BD10B50021374801F00DFA10BDED
:104FC00010B500BF354800884FF47A7100FB01F43A
:104FD000314801F0B8FC044400202F4924310880F6
:104FE0003220FBF780FA204610BD2DE9F84F4FF034
:104FF000000A0024A146A34632E0012028490860A7
:105000001420FBF770FA00202649C1F8940100BF74
:1050100023487C3800680028FAD0FFF7BEFF641CE4
:1050200000BF1F487C3800680128FAD0FFF7C2FF94
:10503000FFF7C6FF8246504604F04AFC009004F099
:1050400063FA07464FF06632174B03F0D7FD05466B
:1050500003F0E6FC81464946584604F081FA83464F
:10506000052CCAD11149584604F0E8FA8146484651
:10507000BDE8F88F10B50121074801F076FC40B17A
:105080000121054801F082FC04480088401C0349C6
:10509000088010BD000C014000040040EC0400201A
:1050A000948121420080214266264D400000A040AC
:1050B00010B586B004460121082000F0F9FC01215A
:1050C000880400F002FD4FF48060ADF81400032066
:1050D0008DF8160018208DF8170005A9524800F029
:1050E0002BFA4FF40060ADF8140004208DF817007F
:1050F00005A94D4800F020FA01940020ADF8080001
:10510000ADF80A00ADF80C00ADF810000C20ADF8B9
:105110000E0001A9454801F080FC012240F2255112
:10512000424801F012FD0121404801F002FD06B0A5
:1051300010BD10B540F225513C4801F0EBFD0028B0
:105140004DD03A4801F066FD04464CB9002038497C
:1051500008703849087038490870384908703EE0CE
:10516000012C0AD101203249087000203149087011
:10517000314908703149087031E0052C0BD100200D
:105180002B49087001202B49087000202A4908701B
:105190002A49087023E0032C0BD100202449087011
:1051A0002449087001202449087000202349087010
:1051B00015E0072C0AD100201D4908701D49087010
:1051C0001D49087001201D49087008E00020184999
:1051D000087018490870184908701849087040F29A
:1051E0002551124801F0C0FD10BD10B504462146FE
:1051F0000E4801F00BFD00BF40210C4801F074FD8A
:105200000128F9D110BD70B50446204601F064FFB5
:1052100086B2002505E014F8010BFFF7E6FF681CD5
:1052200085B2B542F7DB70BD000C0140004800407C
:10523000EE040020EF040020F0040020F104002020
:105240000948804709480047FEE7FEE7FEE7FEE71A
:10525000FEE7FEE7FEE7FEE7FEE7FEE70448054956
:10526000054A064B704700006B030008ED0000087C
:10527000580A0020581C0020580C0020580C002010
:1052800031490143314A1160704770B50021002354
:105290000F22C47804B32D4C246804F4E064C4F5F0
:1052A000E064210AC1F10403CA40447804FA03F11E
:1052B0008478144021430901254C0678A1550478CF
:1052C00004F01F050124AC4005786D11AD0005F117
:1052D000E025C5F8004109E0047804F01F05012429
:1052E000AC401C4D0678761145F8264070BD1A4A30
:1052F0000A400243154B1B1F1A60704739B1134A0D
:10530000121D12680243114B1B1D1A6006E00F4A62
:10531000121D126882430D4B1B1D1A607047042832
:1053200008D14FF0E021096941F004014FF0E0227B
:10533000116107E04FF0E021096921F004014FF00D
:10534000E0221161704700000000FA050CED00E05A
:1053500000E400E080E100E080FFFF1F00204449FE
:105360000860091D0860091D0860091D08604148A2
:105370003F4914310860704700213D498279002A75
:105380003AD00A46126803689A430B461A600A1D0F
:10539000126803689A430B1D1A60027911440A6867
:1053A00003681A430A60324A0832126803689A4353
:1053B0002F4B08331A601A1D126803689A432C4B4E
:1053C0000C331A604279102A0ED11A1F1268036832
:1053D0001A43274B08331A601A1D126803681A43D0
:1053E000234B0C331A600DE02149427911440A68BD
:1053F00003681A430A6005E0027911440A680368E9
:105400009A430A6070470021016001710C214171CB
:105410000021817170471649103109680143144A0F
:1054200010321160704701460020114A1432126890
:105430000A400AB1012000E0002070470C491431F5
:1054400008607047014600200022094B1B6803EAF0
:105450000102074B14331B680B4013B10AB1012042
:1054600000E00020704702491431086070470000D6
:1054700000040140FFFF0F0010B50446CC488442F1
:1054800008D10121042000F02DFB0021042000F0B0
:1054900029FB46E0C748844208D10121082000F0DA
:1054A00021FB0021082000F01DFB3AE0C2488442A5
:1054B00008D10121102000F015FB0021102000F080
:1054C00011FB2EE0BD48844208D10121202000F0CC
:1054D00009FB0021202000F005FB22E0B8488442AF
:1054E00008D10121402000F0FDFA0021402000F009
:1054F000F9FA16E0B348844208D10121802000F077
:10550000F1FA0021802000F0EDFA0AE0AE48844272
:1055100007D10121801500F0E5FA0021A01500F067
:10552000E1FA10BD10B50121084600F0DBFA0021B8
:10553000012000F0D7FA10BD2DE9F0410246002508
:105540000026002000230024002791F803C00CF05F
:105550000F0591F803C00CF0100CBCF1000F03D044
:1055600091F802C04CEA050591F800C0BCF1000FAB
:1055700031D0146800202BE04FF0010C0CFA00F33E
:10558000B1F800C00CEA03069E4220D183004FF020
:105590000F0C0CFA03F7BC4305FA03FC4CEA0404B5
:1055A00091F803C0BCF1280F06D14FF0010C0CFAA2
:1055B00000FCC2F814C00AE091F803C0BCF1480F27
:1055C00005D14FF0010C0CFA00FCC2F810C0401CD1
:1055D0000828D1D31460B1F800C0BCF1FF0F34DD4E
:1055E000546800202EE000F1080C4FF0010808FA82
:1055F0000CF3B1F800C00CEA03069E4221D18300EF
:105600004FF00F0C0CFA03F7BC4305FA03FC4CEA0D
:10561000040491F803C0BCF1280F05D100F1080C77
:1056200008FA0CF8C2F8148091F803C0BCF1480FD6
:1056300007D100F1080C4FF0010808FA0CF8C2F885
:105640001080401C0828CED35460BDE8F0814FF68E
:10565000FF710180022181700421C17070470246F0
:10566000002093680B400BB1012000E00020704740
:105670000146886880B2704702460020D3680B401C
:105680000BB1012000E0002070470146C86880B2DD
:10569000704701617047416170470AB1016100E0E4
:1056A00041617047C16070474FF480320A438261A4
:1056B0008161826182698269704702460020434BA2
:1056C00018684FF68073184040EA021008433F4BB9
:1056D000186070473E49C8617047F0B50A4600231C
:1056E00000240021002500F00046B6F1004F02D151
:1056F000364EF16901E0354E7168C0F3034583B25F
:1057000000F44016B6F5401F08D121F070612F4E0D
:10571000766826F070662D4F7E6012E000F48016E9
:10572000B6F5801F06D1032606FA05F4A14341F021
:10573000706106E0460D360103FA06F6B14341F00A
:10574000706122B1460D360103FA06F6314300F0CE
:105750000046B6F1004F02D11C4EF16101E01B4E34
:105760007160F0BD30B500228B071C0F0F2303FAC8
:1057700004F2164B08338C1053F824309343134C27
:1057800008348D1044F8253023468C1053F824300B
:105790008C07240F00FA04F423430C4C08348D10BA
:1057A00044F8253030BD0A49DC31086070470000FC
:1057B00000080140000C01400010014000140140AD
:1057C00000180140001C0140002001400000014081
:1057D00000002042DF48006840F00100DD49086019
:1057E00008464068DC490840DA49486008460068D5
:1057F000DA490840D74908600846006820F480204C
:1058000008600846406820F4FE0048604FF41F001E
:1058100088607047CF49096821F48031CD4A116012
:105820001146096821F480211160B0F5803F03D052
:10583000B0F5802F0ED106E0C649096841F48031E9
:10584000C44A116007E0C349096841F4A021C14A74
:10585000116000E000BF00BF704710B50146002294
:10586000002300204A11012A02D1BA4C236806E025
:10587000022A02D1B74C236A01E0B64C636A01F0F8
:105880001F02012494401C400CB1012000E00020C4
:1058900010BD38B5002000900024002500BF312045
:1058A000FFF7DBFF05460098401C00900098B0F51C
:1058B000A06F01D0002DF2D03120FFF7CEFF08B14C
:1058C000012400E00024204638BD01460020A14A02
:1058D000106820F0F80040EAC10010607047A0494D
:1058E00008607047024600209A4B586820F47C10EC
:1058F00042EA01031843974B58607047984908667D
:10590000704701460020934A506820F00300084386
:10591000506070478F48406800F00C0070470146A7
:1059200000208C4A506820F0F00008435060704717
:1059300001460020874A506820F4E0600843506028
:10594000704701460020834A506820F4605040EAC6
:10595000C1005060704729B17E4A527A02437D4BA4
:105960005A7204E07B4A527A82437A4B5A727047E9
:105970007B49D8310860704701460020754A50685D
:1059800020F440400843506070470021714A2032A3
:105990001170704A82F82010012802D004280AD120
:1059A00004E001216B4A2032117005E00521694AAB
:1059B0002032117000E000BF00BF704769490860E5
:1059C00070476449096A0143624A11627047654938
:1059D00044390860704730B50021002200240023BC
:1059E0005C4D6D6805F00C0121B1042905D0082932
:1059F00023D105E05C4D056022E05B4D05601FE0B2
:105A0000544D6D6805F47012524D6D6805F4803484
:105A1000022505EB92421CB9544D554305600BE03D
:105A20004C4D6D6805F400351DB1504D5543056072
:105A300002E04D4D5543056002E04B4D056000BF4F
:105A400000BF444D6D6805F0F0010909484D6B5CDD
:105A50000568DD4045603F4D6D6805F4E061090A69
:105A6000434D6B5C4568DD4085603A4D6D6805F4DB
:105A70006051C90A3E4D6B5C4568DD40C560354DDF
:105A80006D6805F44041890B3A4D6B5CC568B5FB08
:105A9000F3F5056130BD29B12E4A526902432D4B01
:105AA0005A6104E02B4A526982432A4B5A6170477B
:105AB00029B1284A92690243264B9A6104E0254A9B
:105AC00092698243234B9A61704729B1214AD26976
:105AD0000243204BDA6104E01E4AD26982431D4B27
